:020000002028B6
:080008008C00030E8D000D0EAB
:0800100083008C0E0C0E0900A8
:100040008316003085000030860081170117811269
:1000500001128111011481140115831205113A2135
:10006000BA100030B0007C21242140304A211130E8
:1000700048210A3048211F304821043048211F30D0
:100080004821043048210430482100304821FF3005
:100090004821FF304821FF304821003048210030FE
:1000A00048210030482100304821003048211F30CD
:1000B00048211F3048211F3048211130482111307C
:1000C00048211F3048211F3048211F30482111305E
:1000D000482111304821FF304821003048210030AC
:1000E00048210030482100304821003048210430A8
:1000F0004821023048211130482107304821113071
:100100004821023048210430482100304821113074
:10011000482100304821043048210430482115305E
:1001200048210A30482104304821003048218030DD
:100130004A2101304A216630B0007C21242101305F
:100140004A2124304A210F304A217630B0007C21E8
:10015000E2304821E4304821E6304821E7304821A8
:10016000EA304821F0304821F1304821F930482167
:10017000FF30482120304821242128304A210130F5
:100180004A2190304A2148304821653048216C305E
:1001900048216C3048216F3048210830BC001830AD
:1001A0004A212A21BC0BCF28C8304A210F304A21CE
:1001B000BA143430B600802107304A214430B600EA
:1001C0008021C0304A215630B600802124210630DB
:1001D0004A210C304A2101304A21BA102130B000A6
:1001E0007C210030B7001030B900C0304A213708F8
:1001F000B80038084821B80AB90BF928B70A2F21E6
:10020000FF3037020319F1282A21F3288316F03032
:100210008600831205158510051435210608F0396E
:10022000BB0005103521051435210608F039BB0E39
:10023000BB04BB0E05103521BB1B0C290511831611
:1002400000308600831208001830B5002A21B50B53
:10025000262908004030B4002F21B40B2C2940304F
:10026000B3003521B30B312908002030B200B20BA6
:1002700037290800333068213230682128304D2179
:1002800006304A210C304A2101304A210800303E14
:1002900085144B29851005104F2985100510B100D4
:1002A0003A1085183A143108F03986003A18851446
:1002B00035210514352105103521310EF039860020
:1002C0003A1885143521051435210510062108003A
:1002D00085100510B100F03986003521051435214F
:1002E000051035213108310EF0398600352105140D
:1002F000352105103521080002304A213008B600AA
:10030000FC22B60AB1000A3A0319080031080D3A76
:1003100003198F2931084821BA182A218029C030B1
:060320004A212F21802973
:0805F80003308A003608820777
:100600004C342034433420344434203443346F3465
:100610006D3470346F346E3465346E347434203419
:100620000D34443465346D346F3420347034723496
:100630006F346734723461346D34203420342034A4
:100640000A34533468346F34773420344334683494
:1006500061347234613463347434653472347334A5
:1006600020340D3420340A34203420342034203413
:100670002034203420342034483465346C346C34D5
:100680006F34203420340A346934733420347434A1
:100690006834653472346534203461346E347934AE
:1006A00062346F346434793420340A346F347534EE
:1006B00074342034743468346534723465342034CE
:1006C0003F3420343A342D3429340A3447347234D8
:1006D00061347034683469346334733420340034E2
:1006E000013402340334043405340A3435347834A4
:0806F0003134303420340A34A7
:00000001FF
