:020000002028B6
:080008008C00030E8D000D0EAB
:0800100083008C0E0C0E0900A8
:100040008316F030860000308500831227280000D8
:1000500001308600B100060E0739031D4728023023
:100060008600B10A060E0739031D472804308600B2
:10007000B10A060E0739031D472808308600B10A69
:10008000060E0739031D4728003086002728B000D8
:10009000B10B4B286F28B10B4E286228B10B5128A9
:1000A0005528B01C7C28B5017F2830185F28B0186F
:1000B0005C280930B5007F280830B5007F2807305C
:1000C000B5007F2830186C28B01869280630B500B4
:1000D0007F280530B5007F280430B5007F28301810
:1000E0007928B01876280330B5007F280230B50093
:1000F0007F280130B5007F28FF30B500272835085C
:100100008500051200000000051627288030B40085
:100110008C20B40B882808004030B3009220B30B29
:0E0120008E2808002030B200B20B9428080090
:00000001FF
